:4000000080673030303030307e3030307e3030307e3030307e3030307e3030307e3030307e3030307e3030307d054b7e7d054c7e7e3030307e3030307e3030307e3030307a
:400040007e3030307e3030307e3030307e3030307e3030307e3030307e3030307e3030307e3030307e303030711062fa0062e38770ef50202850402850602862e33841fe08
:40008000fb50804e62e33855f80055f900711062e00270ef62e338627105627505627905627d0562d10750004e62d30762d00062d50062d40071c07c04e962d000500357cd
:4000c000e00828532718750900284b5127800475090062e300082860d574a04b1875090008285327187509000828a01c53261875090008283f274727ffb0065dd57460d585
:40010000187a26bfeb8fc9187509000828532650003f274727ffb0085dd57460d550007a26bfef188faa18711070ef62e000711062e00043e78070ef62e2007c07278fff9f
:4001400050107f3030303030303030303030303030303030303030303030303030303030303030303030303030303030303030303030303030303030303030303030303030
:400180003030303030303030303030303030303030303030303030303030303030303030636c65617220636f756e746572200d0a006d6f6465203d20484558200d0a006d36
:4001c0006f6465203d20444543200d0a00433d30782578200d0a00433d2564200d0a002f002d002e002b0029002a006028660063056500e600e700d600b000b100b200b3df
:4002000033b433b501b600b855b900ba10bb33bc33bd00be00c000c100c220c333c433c500c600c855c900ca30cb33cc33cd00ce006c006d006e006f00ff2c052dd12e40ab
:40024000281d29012a4461006900600062006733683363006600d100d300d000d200e1ffe200df19de00dd00e700ff002020202020202020203030303030202020202020a6
:40028000202020202020202020202020904040404040404040404040404040400c0c0c0c0c0c0c0c0c0c4040404040404009090909090901010101010101010101010101f3
:4002c000010101010101014040404040400a0a0a0a0a0a020202020202020202020202020202020202020240404040200000000000000000000000000000000000000000f3
:4003000000000000000000000000000000000000000000000000000000000000000000000000000000000000000000000000000000000000000000000000000000000000bd
:400340000000000000000000000000000000000000000000000000000000000000000000000000000000000000000000286e756c6c20707472207061737365642900696e84
:400380007465676572206f6e6c79207072696e74662c2073656c6563742050726f6a6563742d3e4f7074696f6e732d3e5461726765742c224650207072696e746622207458
:4003c0006f207072696e7420666c6f6174696e6720706f696e74206e756d626572733e00125b0c8a70ef62000071106200016201fe70ef6203fc62020371106202006203af
:400400000070ef62010062040071106204006205ff70ef6207ff620600711062060062070070ef62050062080071106208006209ff70ef620bff620a007110620a00620bb0
:400440000070ef620900620c007110620c00620d0070ef620f00620e007110620e00620f0070ef620d00621000711062100062110070ef62130062120071106212006213ec
:400480000070ef621100621400711062140062150070ef621700621600711062160062170070ef621500621800711062180062190070ef621b00621a007110621a00621b2c
:4004c0000070ef621900621c007110621c00621d0070ef621f00621e007110621e00621f0070ef621d0070ef7f7c04f07c03e47f1070ef500067500157df7c050b50016745
:400500005002573a7c050b70ef207f380210084f56fc00d00456fc01182070ef62e30010082839ffa01f4f48fc01a003711054fd18207509001008284f59fd61001820756f
:4005400009008fd738fc703f71c07f7e085dd0085dd3085dd4085dd508703f71c062d000512708512608512508512408512308512208512108512008511f08511e08511dc0
:4005800008511c08511b08511a0851190862d0007c07e0703f71c062d00018531918531a18531b18531c18531d18531e18531f1853201853211853221853231853241853e1
:4005c000251853261853271860d51860d41860d31860d07000187e43e10443e1087f41e1fb41e1f77f71102101a00743281070ef7f4128ef70ef7f2901602b602f7f412bf1
:40060000fe412ffe7f60297f5d2b7f5d2e7f5d2f7f210171103901a0064128ef800443281070ef7f082101a00643e108800441e1f7182102a00643e104800441e1fb7f3001
:400640003132333435363738394142434445460867676767210fffe7900f18210fffe090087f4b9fea5b9fe77f492b10affc60297f492f08affc5d2e7f5d2f082108b00460
:4006800018800b5d2e4b1821a0b0034b7f50007f5d2f21e8082108b0071829014b80071821e04b5d2e7f70bf60d35200a0069fb9758ff8703f71c07f70bf62d3074f52fb89
:4006c000a01a7bfb52fc59fd60d35200492b10affc60294f62d30777fd8fe4703f71c07f4f3dfa00b0063dfb00a01d1052fc59fd28492b10affc60292007fd010ffc00170c
:40070000fb011ffa008fdb703f71c07f081028a00b9f56201875dff5748ff238fe7f500d9f47500a9f437f104f3818710162d000552a011050007c05f750017c0624208090
:400740009962d000762b62d0003c2a01b02962d000512b62d000532650000851260850010850d7085a260626045007085126087c0cbc38fa802762d000512b62d0005326df
:4007800050000851260850010850cd085a260626045007085126087c0cbc38fa62d0005a260626041050070851265c187c06a6205600005601005602005603000703010fe4
:4007c00002000f01000f0000bff33d0100bfee3d023abfe93d0398bfe48f6738e8208fff104f3803107c06792062d0005400520054025601003d0100b0063d0243a0693dd5
:400800000100b0063d0244a0373d0100b0063d0248a04152021143520131801980c05b3d0100b0063d0263a03f3d0100b0063d0264a00d3d0100b0063d0268a017803b62c3
:40084000d000552a011050010850bf5c187c070c20802762d000552a001050010850b15c187c070c2080131050010850a05c187c070c2062d000552b0038fd207f104f7c38
:40088000088820703f71c07f5dd00862d0005000531a531b55191066fc6cfb6b1a6b1b511a1bfa511b1bf9c009531b52fa1c1a77fc7a19bfe3511a54fa511b54f91860d02a
:4008c0007f531b2808511b75090028087f104f380952fa540352f954023df900b02f3dfa00b02a62d00052fc532652fb60d550303f2652fc0101532652fb090060d5500034
:400900003f2652fc532652fb5327819752fa110052f931801980d0293df700b0243df80ab01f56060162d0005203735326520273532751260101540351270900540280046f
:4009400056060052fc540152fb540062d00052f70852f8085202085203087c087d38fe18532618532751265408512754075009130852073180531b50801a1bc02862d0003e
:400980005201532652005327512601015401512709005400520801305325512760d551253f26802662d0005201532652005327512601015401512709005400520801575359
:4009c00025512760d551253f2652f70852f80852020852030862d0007c087d18540318540238fe3d0200bf643d0300bf5f3d0600a02062d0005201532652005327512601a3
:400a0000015401512709005400512760d5502d3f2662d0005201532652005327512601ff5401512709ff5400512760d550003f2652fc540552fb5404805462d00052055334
:400a400026520460d43e265406520553265204532751260101540551270900540452015324520060d43e245325512760d551253f265201532652005327512601ff54015156
:400a80002709ff5400512760d552063f265205130152041b00cfa462d00052fc532652fb532738f7207f104f380752fc540152fb540062d00052f70852f80852f90852fa16
:400ac000087c087d38fe18532618532751265406512754055009130652053180531b50801a1bc02862d00052015326520053275126010154015127090054005206013053d4
:400b000025512760d551253f26802662d0005201532652005327512601015401512709005400520601575325512760d551253f2652f70852f80852f90852fa0862d0007c4d
:400b4000087d1854fa1854f938fe3df900bf643dfa00bf5f62d0005201532652005327512601ff5401512709ff5400512760d550003f2652fc540352fb5402805462d00027
:400b800052035326520260d43e265404520353265202532751260101540351270900540252015324520060d43e245325512760d551253f265201532652005327512601ff1f
:400bc0005401512709ff5400512760d552043f265203130152021b00cfa462d00052fc532652fb532738f9207f104f62d00052fc016c532652fb09021058262820532655c8
:400c00002700262604262700207f104f62d00052fc016c532652fb090210582628205326552700262602262700207f104f62d00052fc016c532652fb0902105826282053e9
:400c400026552700262610262700207f104f52fb0852fc087c0c0a38fe62d0003c2700b0063c2600a01862d00052fc1161532652fb190053270626410e2700800c62d000a8
:400c800052fc532652fb5327207f104f62d000512908512862d0005327185326010162d000532962d0005127090062d000532862d000512760d552fc3f26207f104f380264
:400cc00062d00052fc532952fb532862d0005a261626075126540156000752000852010852f90852fa0850030850e2087c0d2538fa62d000512908512862d00053271853fd
:400d000026512760d550003f2662d000512913fc62d000532662d00051281bfb62d000532738fe207f104f381156050056040083c762d00052fa532652f91058262820398b
:400d400025a02352fa532652f91058262820100852fc532652fb58267c08c138ff2077050f0400838e560a0056090056070056060056082077fa0ff90062d00052fa532659
:400d800052f910582628205410560f0052101158531a520f318019802a1aa0edd0225210114562d000531a520f31801980c0832a1aa3383d0f00b0063d1053a23280733d99
:400dc0000f00b0063d1063a1f63d0f00b0063d1064a0843d0f00b0063d1065a30e3d0f00b0063d1066a3043d0f00b0063d1069a0663d0f00b0063d106fa08e3d0f00b006a3
:400e00003d1070a08452101163520f31801980c0213d0f00b0063d1073a24a3d0f00b0063d1075a0643d0f00b0063d1078a05a800162d00052fa532652f91058262820108f
:400e40000852fc532652fb58267c08c138ff2077050f0400829d07f8fe0ff7ff62d00052f8532652f760d43e26540b3e26540c500008500a08520b08520c08520608520755
:400e8000087c08cd38fa812f07f8fe0ff7ff62d00052f8532652f760d43e2653273e26540c5127540b52fa532652f910582628203975b01a500008500a08520b08520c0827
:400ec0005206085207087c0aa638fa80ea62d00052fa532652f91058262820396fb01a500008500808520b08520c085206085207087c0aa638fa80bf62d00052fa532652b5
:400f0000f910582628203970b0395207532652065327512601015407512709005406512760d550303f265207532652065327512601015407512709005406512760d55078a3
:400f40003f26500008501008520b08520c085206085207087c0aa638fa62d00052fa532652f910582628203958b04c560100560000803362d00052015326520060d43e2675
:400f800053265000085126087c0c4c38fe62d0005126532752015324520060d551273f2477010f000062d00052015326520060d43e263900bfbe56010056000080d207f865
:400fc000fe0ff7ff62d00052f8532652f760d43e263e26540d10520d0852fc532652fb58267c08c138ff2077050f0400810507f8fe0ff7ff62d00052f8532652f760d43ee7
:401000002654023e2654033d082db04510502d0862d00052fc532652fb58267c08c138ff2077050f0400802962d0005203532652021058262820100852fc532652fb582611
:401040007c08c138ff2077050f040077030f020062d00052035326520210582628203900bfc7808f07f8fe0ff7ff62d00052f8532652f760d43e2654003e2654013d0000a0
:40108000b00e3d0100b00956036c5602038f793d082db04410502d0862d00052fc532652fb58267c08c138ff2077050f0400802862d00052015326520060d43e261008526f
:4010c000fc532652fb58267c08c138ff2077050f040077010f000062d00052015326520060d43e263900bfc9800956037e5602038f1677fa0ff90062d00052fa532652f93a
:4011000010582628203900bc29520553265204532738ef207f104f3804800677fc0ffb0062d00052fc532652fb105826282053265000085126087c0c2b38fe62d0003c27cd
:4011400000bfd93c2600bfd456030056020062d00052fc532652fb1058262820392db00e56030156020077fc0ffb00801862d00052fc532652fb1058262820392bb006777d
:40118000fc0ffb00560100560000807c62d00052fc532652fb53275126010154fc5127090054fb520153245200532555220a552300551b00551a003c2300b0063c2200a0a8
:4011c0001a70fb6e236e22d00c62d0005124041b51250c1a65246b258fde5f241b5f251a62d00051271058262820532655270051240226532651250a275327512611305491
:401200000151271900540062d00052fc532652fb105826282053265000085126087c0be938fe62d0003c2700bf633c2600bf5e3d0200b0063d0300a01462d000520173118e
:40124000ff532652007319ff5327800c62d000520153265200532738fc207f0000001900280004ff0030303030303030303030303030303030303030303030303030303022
:40128000303030303030303030303030303030303030303030303030303030303030303030303030303030303030303030303030303030303030303030303030303030302e
:4012c00030303030303030303030303030303030303030303030303030303030303030303030303030303030303030303030303030303030303030303030303030303030ee
:4013000030303030303030303030303030303030303030303030303030303030303030303030303030303030303030303030303030303030303030303030303030303030ad
:40134000303030303030303030303030303030303030303030303030303030303030303030303030303030303030303030303030303030303030303030303030303030306d
:020000040010ea
:020000040020da
:02000000d8c165
:00000001ff
